00COTAHIST.2022BOVESPA 20220420                                                                                                                                                                                                                      
012022010302A1AP34      010ADVANCE AUTODRN          R$  000000000852800000000085280000000008312000000000852400000000083120000000008312000000000000000002000000000000000122000000000001039984000000000000009999123100000010000000000000BRA1APBDR001109
012022010302A1BB34      010ABB LTD     DRN          R$  000000000540000000000054600000000005400000000000543100000000054600000000005280000000000549900008000000000000000192000000000001042902000000000000009999123100000010000000000000BRA1BBBDR009101
012022010302A1CR34      010AMCOR PLC   DRN          R$  000000000669000000000066900000000006690000000000669000000000066900000000000000000000000000000001000000000000000002000000000000013380000000000000009999123100000010000000000000BRA1CRBDR003105
012022010302A1DI34      010ANALOG DEVICDRN          R$  000000004983400000000499960000000049834000000004989800000000499960000000000000000000000000000003000000000000000078000000000003892051000000000000009999123100000010000000000000BRA1DIBDR000108
012022010302A1DM34      010ARCHER DANIEDRN          R$  000000003831000000000385320000000038310000000003851100000000385320000000000000000000000000000002000000000000000022000000000000847260000000000000009999123100000010000000000000BRA1DMBDR002108
012022010302A1FL34      010AFLAC INC   DRN          R$  000000003193600000000319360000000031936000000003193600000000319360000000031936000000000000000001000000000000000001000000000000031936000000000000009999123100000010000000000000BRA1FLBDR009108
012022010302A1GI34      010AGILENT TECHDRN ED       R$  000000004762900000000476290000000047629000000004762900000000476290000000000000000000000000000003000000000000000015000000000000714435000000000000009999123100000010000000000000BRA1GIBDR003108
99COTAHIST.2022BOVESPA 2022042000000626766                                                                                                                                                                                                           